:040000000200543274
:03000B0002087177
:100010000000E2FBEAF2802C0000E0FBEAF0802422
:10002000E6B50202EBF62200E2B50202EBF2220094
:10003000E0B50202EBF02230F6E0A88220F5D3EA28
:10004000C6F582228B822230F6E6A88220F5D9807E
:01005000CFE0
:0300AD00020051FD
:0300510002092978
:1000B000AF83E582900001F0EFA3F0900001E0FE35
:1000C000A3E0FF8E048F051EBEFF011F900001EE0E
:1000D000F0EFA3F0EC4D60289000037458F0740228
:1000E000A3F0900003E0FCA3E0FDEC24FFFAED3464
:1000F000FFFB900003EAF0EBA3F0EC4D60C580E25B
:10010000900001EEF0EFA3F0229000057419F0903A
:100110000005E0FF14F0EF70F62253B1FB53B2FB81
:1001200043B0042243B10443B20453B0FB2253B1A1
:10013000F753B2F743B0082243B10843B20853B0B3
:10014000F72212012E12011A1201091201381201AE
:100150000912012402010912013812011A120109BF
:1001600012012E020109E582900006F07F00900046
:1001700006E030E709C00712012ED0078007C0074C
:10018000120138D007C00712010912011A12010921
:10019000120124D007900006E025E0F00FBF080010
:1001A00040CC12012E12010912011A12010912018A
:1001B00024020109E582900007F01201427582785D
:1001C000120166758200120166900007E0F5821246
:1001D00001660201579000FA1200B07582AE12015A
:1001E000B47582201201B47582021201B47582B016
:1001F0001201B47582001201B47582101201B47537
:1002000082401201B47582811201B475827F12019D
:10021000B47582A11201B47582C81201B47582A6A8
:100220001201B47582A81201B475823F1201B4752F
:1002300082D31201B47582001201B47582D5120105
:10024000B47582801201B47582D91201B47582220C
:100250001201B47582DA1201B47582121201B475FA
:1002600082DB1201B47582201201B475828D1201F5
:10027000B47582141201B47582A41201B47582AFF0
:100280001201B49000960200B07F008F0674B02E69
:10029000F582C0071201B47582001201B475821094
:1002A0001201B41201427582781201667582401201
:1002B0000166D0077E00758200C007C00612016685
:1002C000D006D0070EBE800040ECC007120157D008
:1002D000070FBF080040B422E582900009F0E02437
:1002E000B0F5821201B4900008E0FFFD5305F0E480
:1002F000CDC4540F6DCD540FCD6DCD30E30244F01D
:100300004305108D82C0071201B4D00753070F8F29
:10031000820201B4E58290000CF090000BE0FFBF78
:1003200030004010EF24C6400B8F06EE24D0900022
:100330000DF08070BF2D0890000D740AF08065BF2D
:10034000200890000D740BF0805ABF2E0890000D0D
:10035000740CF0804FBF3A0890000D740DF080448B
:10036000BF2A0890000D740EF08039BF3D08900040
:100370000D740FF0802EBF41004010EF24A5400BFC
:100380008F0690000D74CF2EF08019BF6100400ED3
:10039000EF2485400990000D74AF2FF08006900087
:1003A0000D740BF090000CE0FF90000AE090000844
:1003B000F08F821202D8120142758278120166759E
:1003C000824012016690000DE075F008A42406FE3C
:1003D000741035F0FF7D00ED2EF582E43FF583E4E7
:1003E00093F582C007C006C005120166D005D0068D
:1003F000D0070DBD080040DF020157E582900012D2
:10040000F0E0FF90000FE0FCA3E0FDA3E0FE8C8293
:100410008D838EF0120FE6FB603590000EE0FA90AF
:10042000000AF090000BEBF08F82C007C006C005F9
:10043000C004C002120314D002D004D005D006D0EC
:100440000790000E74082AF00CBC00C20D80BF2279
:10045000E582900019F0E0FF900013E0FE90000E9E
:10046000F090000F7456F07411A3F07480A3F08F15
:1004700082C007C0061203FBD006D0079000137499
:10048000202EF0900018E060030206A8900014E00F
:10049000FBA3E0FCA3E0FDA3E0FEC3748B9BE49C04
:1004A000E49DE49E401B900013E090000EF090004D
:1004B0000F745BF07411A3F07480A3F08F820203B9
:1004C000FBEB2475FBEC34FFFCED34FFFDEE34FF59
:1004D000FE900014EBF0ECA3F0EDA3F0EEA3F0908F
:1004E0000013E0F508900014E0F509A3E0F50AA375
:1004F000E0F50BA3E0F50C90003574E8F07403A36D
:10050000F0E4A3F0A3F0850982850A83850BF0E56A
:100510000CC007120E86A882A983ADF0FE90002CB5
:10052000740AF0E4A3F0A3F0A3F0888289838DF02D
:10053000EE120D47AB82D00774302BFB90000AE51A
:1005400008F090000BEBF08F82C007120314D00765
:10055000AE0890001374082EF0E0FE90003574642D
:10056000F0E4A3F0A3F0A3F0850982850A83850B4C
:10057000F0E50CC007C006120E86AA82AB83ACF071
:10058000FD90002C740AF0E4A3F0A3F0A3F08A829B
:100590008B838CF0ED120D47AA82D006D007743001
:1005A0002AFA90000AEEF090000BEAF08F82C00762
:1005B000C006120314D006D00790001374082EF062
:1005C000E0FE900035740AF0E4A3F0A3F0A3F085F8
:1005D0000982850A83850BF0E50CC007C006120E60
:1005E00086AA82AB83ACF0FD90002C740AF0E4A3E1
:1005F000F0A3F0A3F08A828B838CF0ED120D47AA52
:1006000082D006D00774302AFA90000AEEF09000EB
:100610000BEAF08F82C007C006120314D006D00781
:1006200090001374082EF0E0FE90000AF090000B8A
:10063000742EF08F82C007C006120314D006D007B4
:1006400090001374082EF0E0FE90002C740AF0E481
:10065000A3F0A3F0A3F0850982850A83850BF0E55A
:100660000CC007C006120D47AA82D006D00774300E
:100670002AFA90000AEEF090000BEAF08F82C00791
:10068000C006120314D006D00790001374082EF091
:10069000E090000EF090000F7464F07411A3F074F9
:1006A00080A3F08F820203FB900013E0F509900015
:1006B00014E0F50DA3E0F50EA3E0F50FA3E0F510AF
:1006C00090003574E8F07403A3F0E4A3F0A3F08580
:1006D0000D82850E83850FF0E510C007120E86A8E7
:1006E00082A983ADF0FE90002C740AF0E4A3F0A37D
:1006F000F0A3F0888289838DF0EE120D47AB82D093
:100700000774302BFB90000AE509F090000BEBF02A
:100710008F82C007120314D007AE0990001374082B
:100720002EF0E0FE9000357464F0E4A3F0A3F0A393
:10073000F0850D82850E83850FF0E510C007C00699
:10074000120E86AA82AB83ACF0FD90002C740AF0E6
:10075000E4A3F0A3F0A3F08A828B838CF0ED120D5A
:1007600047AA82D006D00774302AFA90000AEEF029
:1007700090000BEAF08F82C007C006120314D00667
:10078000D00790001374082EF0E0FE900035740A34
:10079000F0E4A3F0A3F0A3F0850D82850E83850F0E
:1007A000F0E510C007C006120E86AA82AB83ACF03B
:1007B000FD90002C740AF0E4A3F0A3F0A3F08A8269
:1007C0008B838CF0ED120D47AA82D006D0077430CF
:1007D0002AFA90000AEEF090000BEAF08F82C00730
:1007E000C006120314D006D00790001374082EF030
:1007F000E0FE90000AF090000B742EF08F82C0078C
:10080000C006120314D006D00790001374082EF00F
:10081000E0FE90002C740AF0E4A3F0A3F0A3F085AE
:100820000D82850E83850FF0E510C007C006120DFE
:1008300047AA82D006D00774302AFA90000AEEF058
:1008400090000BEAF08F82C007C006120314D00696
:10085000D00790001374082EF0E090000EF0900086
:100860000F7468F07411A3F07480A3F08F820203F8
:10087000FBC0E0C082C083C007C006C0D075D000F6
:10088000900046E0FEA3E0FF90004674012EF0E4E5
:100890003FA3F0D0D0D006D007D083D082D0E032B2
:1008A00090001AE4F0F58CF58AC28D900046E4F0D1
:1008B000A3F0D2A953B1FD43B202D2B1D28CE5C8A4
:1008C00030E50E90001AE02401F0E024F550078096
:1008D0001690001AE4F0900046E0FEA3E0FFC37417
:1008E000A49E74069F50D7C28CC2A9900046E0FC1B
:1008F000A3E0FF8C067C007D00AB8C7A008A008B25
:10090000017B00E84204E94205EA4206EB4207A8FF
:100910008AE4F9FAFBE84204E94205EA4206EB42BE
:10092000078C828D838EF0EF2290001FE4F0A3F0FD
:10093000A3F0A3F0900023F0A3F0A3F0A3F09000A5
:100940002804F0900029E4F043C92053CADF43B1E2
:100950000153B2FE758E80759D00758E00438E80AA
:100960005389F0C28CC28DD2AF12011A12012E909F
:1009700000641200B01201D512028920B049900023
:10098000281200B020B04020B00890000A1200B039
:1009900080F59000321200B0900029E0700E9000B7
:1009A000297401F07582AE1201B4801B900029E415
:1009B000F07582AF1201B490001FE4F0A3F0A3F031
:1009C000A3F090002804F0900029E0FFBF0110532D
:1009D000B1FD43B202C2B19000641200B0809C121B
:1009E00008A085821185831285F013F514900028E4
:1009F000E0701D900023E0F8A3E0F9A3E0FAA3E083
:100A0000FBC3E89464E99400EA9400EB9400501965
:100A1000900023E511F0E512A3F0E513A3F0E5142F
:100A2000A3F0900028E4F0805FEBC313FFEA13FE0D
:100A3000E913FDE813FCEBC313FBEA13FAE913F91E
:100A4000E813F8EBC313FBEA13FAE913F9E8132CE4
:100A5000FCE93DFDEA3EFEEB3FFFE514C313FBE579
:100A60001313FAE51213F9E51113F8EBC313FBEABC
:100A700013FAE913F9E8139000232CF0E93DA3F0F1
:100A8000EA3EA3F0EB3FA3F0900023E0FCA3E0FDDF
:100A9000A3E0FEA3E0FFC374F89C74A79DE49EE46A
:100AA0009F4003020BBC9000277401F0900042ECC1
:100AB000F0EDA3F0EEA3F0EFA3F0900017E4F5F053
:100AC000120F7AA882A983AAF0FB90003574A0F0D7
:100AD0007486A3F07401A3F0E4A3F0888289838A6A
:100AE000F0EB120E86A882A983AAF0FB90001BE807
:100AF000F0E9A3F0EAA3F0EBA3F0E8494A4B700D4C
:100B000090001B7401F0E4A3F0A3F0A3F090001B8D
:100B1000E0F515A3E0F516A3E0F517A3E0F51890AE
:100B2000001FE0F511A3E0F512A3E0F513A3E0F533
:100B300014C3E5119515E5129516E5139517E514FF
:100B40009518503CE515C39511F8E5169512F9E591
:100B5000179513FAE5189514FBC3E89401E994007E
:100B6000EA9400EB94004003020C9390001BE51103
:100B7000F0E512A3F0E513A3F0E514A3F0020C9343
:100B8000E511C39515F8E5129516F9E5139517FAD1
:100B9000E5149518FBC3E89401E99400EA9400EB8E
:100BA00094004003020C9390001BE511F0E512A3A2
:100BB000F0E513A3F0E514A3F0020C93900027E4F2
:100BC000F090002804F0900042ECF0EDA3F0EEA3CA
:100BD000F0EFA3F0900017E4F5F0120F7AAC82ADBD
:100BE00083AEF0FF9000357464F0E4A3F0A3F0A3AB
:100BF000F08C828D838EF0EF120E868582158583B0
:100C00001685F017F51890001BE515F0E516A3F012
:100C1000E517A3F0E518A3F090001FE0F8A3E0F9B2
:100C2000A3E0FAA3E0FBC3E89515E99516EA95174A
:100C3000EB95185030E515C398FCE51699FDE517BE
:100C40009AFEE5189BFFC3EC9402ED9400EE94002D
:100C5000EF9400503E90001BE8F0E9A3F0EAA3F007
:100C6000EBA3F0802EE8C39515FCE99516FDEA95F7
:100C700017FEEB9518FFC3EC9402ED9400EE940080
:100C8000EF9400500E90001BE8F0E9A3F0EAA3F007
:100C9000EBA3F090001BE0FCA3E0FDA3E0FEA3E0CB
:100CA000FF90001FE0F8A3E0F9A3E0FAA3E0FBEC5B
:100CB000B5000EEDB5010AEEB50206EFB5030280F0
:100CC00042900027E0FB9000137410F0900014ECA9
:100CD000F0EDA3F0EEA3F0EFA3F0900018EBF075A9
:100CE0008203C007C006C005C004120450D004D05F
:100CF00005D006D00790001FECF0EDA3F0EEA3F0B6
:100D0000EFA3F053B1FD43B202C2B190002AE4F068
:100D1000A3F090002AE0FEA3E0FFC3EE941EEF9440
:100D200000400302097B90000A1200B020B00302C9
:100D3000097B90002AE0FEA3E0FF90002A74012EB8
:070D4000F0E43FA3F080CBBB
:101006003E5149453E00000000427F40000000007E
:1010160042615149460000002141454B3100000024
:101026001814127F100000002745454539000000BE
:101036003C4A4949300000000171090503000000DF
:101046003649494936000000064949291E00000074
:101056000808080808000000000000000000000062
:10106600006060000000000000363600000000004E
:1010760006090906000000001414141414000000E8
:101086007E1111117E0000007F494949360000009B
:101096003E414141220000007F4141221C000000E8
:1010A6007F494949410000007F090901010000000C
:1010B6003E4149497A0000007F0808087F00000089
:1010C60000417F41000000002040413F0100000038
:1010D6007F081422410000007F404040400000008D
:1010E6007F020C027F0000007F0408107F000000D2
:1010F6003E4141413E0000007F090909060000000B
:101106003E4151215E0000007F091929460000007A
:10111600464949493100000001017F0101000000F4
:101126003F4040403F0000001F2040201F000000BD
:101136007F2018207F00000063140814630000005D
:101146000708700807000000615149454300000088
:1011560043583A20002020302E30204E4600204EA4
:08116600460020554600000080
:100D4700AF82AE83ADF0FC900030EFF0EEA3F0ED94
:100D5700A3F0ECA3F0900034E4F0900030E0FCA3A3
:100D6700E0FDA3E0FEA3E0FF7B0090002CE0F51977
:100D7700A3E0F51AA3E0F51BA3E0F51C23540170CB
:100D870074C003E5192519F8E51A33F9E51B33FA99
:100D9700E51C33FB90002CE8F0E9A3F0EAA3F0EBA5
:100DA700A3F090002CE0F519A3E0F51AA3E0F51BDA
:100DB700A3E0F51CC3EC9519ED951AEE951BEF957D
:100DC7001CD0035027E51CC313F51CE51B13F51BAB
:100DD700E51A13F51AE51913F51990002CF0E51A21
:100DE700A3F0E51BA3F0E51CA3F080090B900034EA
:100DF700EBF0020D71900034E0FF900030E0FBA3B0
:100E0700E0FCA3E0FDA3E0FE90002CE0F519A3E0D1
:100E1700F51AA3E0F51BA3E0F51CC3EB9519EC95B8
:100E27001AED951BEE951C4017900030EBC39519F2
:100E3700F0EC951AA3F0ED951BA3F0EE951CA3F02B
:100E470090002CE0FBA3E0FCA3E0FDA3E0C313FEAE
:100E5700ED13FDEC13FCEB1390002CF0ECA3F0ED7D
:100E6700A3F0EEA3F08F061FEE708F900030E0FC2A
:100E7700A3E0FDA3E0FEA3E08C828D838EF022AF7A
:100E870082AE83ADF0FC900039EFF0EEA3F0EDA356
:100E9700F0ECA3F090003DE4F0A3F0A3F0A3F090F2
:100EA7000035E0FCA3E0FDA3E0FEA3E0FF7B20C04C
:100EB70003900039E0F8A3E0F9A3E0FAA3E0FB9080
:100EC7000041235401F0E828F8E933F9EA33FAEB53
:100ED70033FB900039E8F0E9A3F0EAA3F0EBA3F0C5
:100EE70090003DE0F8A3E0F9A3E0FAA3E0FBE828CF
:100EF700F8E933F9EA33FAEB33FB90003DE8F0E920
:100F0700A3F0EAA3F0EBA3F0D003900041E0600860
:100F170090003DE043E001F090003DE0F519A3E0CB
:100F2700F51AA3E0F51BA3E0F51CC3E5199CE51A28
:100F37009DE51B9EE51C9F401F90003DE519C39C46
:100F4700F0E51A9DA3F0E51B9EA3F0E51C9FA3F017
:100F5700900039E043E001F01BEB6003020EB6900E
:100F67000039E0FCA3E0FDA3E0FEA3E08C828D83C3
:030F77008EF022D7
:06008300E478FFF6D8FD51
:100061007902E94400601B7A0190116C784675A011
:1000710000E493F2A308B8000205A0D9F4DAF275FE
:02008100A0FFDE
:100F7A00A882A983AAF0FB88F0900042E0A4FCAD05
:100F8A00F089F0E0A42DFDE435F0FE88F0A3E0A49A
:100F9A002DFDE5F03EFEE433FF89F0E0A42EFEE5E8
:100FAA00F03FFF88F0A3E0A42EFEE5F03FFF8AF0B1
:100FBA00900042E0A42EFEE5F03FFF8BF0E0A42F64
:100FCA00FF8AF0A3E0A42FFF89F0A3E0A42FFF88F3
:0C0FDA00F0A3E0A42F8EF08D838C822207
:100089007800E84400600A790175A000E4F309D812
:10009900FC7845E84400600C7901900001E4F0A384
:0400A900D8FCD9FAAC
:0D00540075811C121002E58260030200514C
:100FE60020F71430F6148883A88220F507E6A88334
:100FF60075830022E280F7E49322E02275820022C4
:00000001FF
