:03000000020006F5
:03005F0002000399
:030003000208FEF2
:10006200AF83E582900001F0EFA3F0900001E0FE83
:10007200A3E0FF8E048F051EBEFF011F900001EE5C
:10008200F0EFA3F0EC4D60289000037458F0740276
:10009200A3F0900003E0FCA3E0FDEC24FFFAED34B2
:1000A200FFFB900003EAF0EBA3F0EC4D60C580E2A9
:1000B200900001EEF0EFA3F0229000057419F09089
:1000C2000005E0FF14F0EF70F62253B1FB53B2FBD0
:1000D20043B0042243B10443B20453B0FB2253B1F0
:1000E200F753B2F743B0082243B10843B20853B002
:1000F200F7221200E01200CC1200BB1200EA12003A
:10010200BB1200D60200BB1200EA1200CC1200BBE6
:100112001200E00200BBE582900006F07F00900032
:1001220006E030E709C0071200E0D0078007C007E9
:100132001200EAD007C0071200BB1200CC1200BBAB
:100142001200D6D007900006E025E0F00FBF0800AD
:1001520040CC1200E01200BB1200CC1200BB120015
:10016200D60200BBE582900007F01200F475827897
:10017200120118758200120118900007E0F5821230
:1001820001180201099000FA1200627582AE120192
:10019200667582201201667582021201667582B04E
:1001A200120166758200120166758210120166756F
:1001B200824012016675828112016675827F120188
:1001C200667582A11201667582C81201667582A6E1
:1001D2001201667582A812016675823F1201667568
:1001E20082D31201667582001201667582D51201F0
:1001F200667582801201667582D912016675822245
:100202001201667582DA1201667582121201667532
:1002120082DB12016675822012016675828D1201DF
:10022200667582141201667582A41201667582AF28
:100232001201669000960200627F008F0674B02E53
:10024200F582C0071201667582001201667582107E
:100252001201661200F4758278120118758240123A
:100262000118D0077E00758200C007C0061201186F
:10027200D006D0070EBE800040ECC007120109D0A4
:10028200070FBF080040B422E582900009F0E02485
:10029200B0F582120166900008E0FFFD5305F0E41C
:1002A200C4CDC4540F6DCD540FCD6DCD30E3024497
:1002B200F04305108D82C007120166D00753070F65
:1002C2008F82020166E58290000CF090000BE0FF45
:1002D200BF30004011EF24C6400C8F06EE24D090B0
:1002E200000DF002035ABF2D0990000D740AF002AE
:1002F200035ABF200990000D740BF002035ABF2E5F
:100302000890000D740CF0804FBF3A0890000D74F5
:100312000DF08044BF2A0890000D740EF08039BFA2
:100322003D0890000D740FF0802EBF41004010EF89
:1003320024A5400B8F0690000D74CF2EF08019BFBC
:100342006100400EEF2485400990000D74AF2FF03C
:10035200800690000D740BF090000CE0FF90000AF4
:10036200E0900008F08F8212028A1200F4758278FF
:1003720012011875824012011890000DE075F00804
:10038200A42477FE741335F0FF7D00ED2EF582E490
:100392003FF583E493F582C007C006C00512011839
:1003A200D005D006D0070DBD080040DF020109E5E7
:1003B20082900012F0E0FF90000FE0FCA3E0FDA3AA
:1003C200E0FE8C828D838EF0121314FB6035900058
:1003D2000EE0FA90000AF090000BEBF08F82C0075B
:1003E200C006C005C004C0021202C7D002D004D0A9
:1003F20005D006D00790000E74082AF00CBC00C28B
:100402000D80BF22E582900019F0E0FF900013E01A
:10041200FE90000EF090000F74C7F07414A3F074F5
:1004220080A3F08F82C007C0061203B1D006D007A6
:1004320090001374202EF0900018E0600302065E14
:10044200900014E0FBA3E0FCA3E0FDA3E0FEC37474
:100452008B9BE49CE49DE49E401B900013E0900083
:100462000EF090000F74CCF07414A3F07480A3F01B
:100472008F820203B1EB2475FBEC34FFFCED34FFF9
:10048200FDEE34FFFE900014EBF0ECA3F0EDA3F0D0
:10049200EEA3F0900013E0F508900014E0F509A334
:1004A200E0F50AA3E0F50BA3E0F50C90003574E843
:1004B200F07403A3F0E4A3F0A3F0850982850A8314
:1004C200850BF0E50CC007121066A882A983ADF077
:1004D200FE90002C740AF0E4A3F0A3F0A3F088824B
:1004E20089838DF0EE120E56AB82D00774302BFB4F
:1004F20090000AE508F090000BEBF08F82C0071223
:1005020002C7D007AE0890001374082EF0E0FE90E8
:1005120000357464F0E4A3F0A3F0A3F085098285AA
:100522000A83850BF0E50CC007C006121066AA828A
:10053200AB83ACF0FD90002C740AF0E4A3F0A3F0BE
:10054200A3F08A828B838CF0ED120E56AA82D0061B
:10055200D00774302AFA90000AEEF090000BEAF00D
:100562008F82C007C0061202C7D006D007900013C0
:1005720074082EF0E0FE900035740AF0E4A3F0A3B4
:10058200F0A3F0850982850A83850BF0E50CC0078C
:10059200C006121066AA82AB83ACF0FD90002C74E8
:1005A2000AF0E4A3F0A3F0A3F08A828B838CF0ED2F
:1005B200120E56AA82D006D00774302AFA90000A88
:1005C200EEF090000BEAF08F82C007C0061202C75D
:1005D200D006D00790001374082EF0E0FE90000AB7
:1005E200F090000B742EF08F82C007C0061202C773
:1005F200D006D00790001374082EF0E0FE90002C75
:10060200740AF0E4A3F0A3F0A3F0850982850A83BB
:10061200850BF0E50CC007C006120E56AA82D00662
:10062200D00774302AFA90000AEEF090000BEAF03C
:100632008F82C007C0061202C7D006D007900013EF
:1006420074082EF0E090000EF090000F74D5F07454
:1006520014A3F07480A3F08F820203B1900013E020
:10066200F509900014E0F50DA3E0F50EA3E0F50FF7
:10067200A3E0F51090003574E8F07403A3F0E4A34E
:10068200F0A3F0850D82850E83850FF0E510C0077B
:10069200121066A882A983ADF0FE90002C740AF0B5
:1006A200E4A3F0A3F0A3F0888289838DF0EE120E0A
:1006B20056AB82D00774302BFB90000AE509F0900C
:1006C200000BEBF08F82C0071202C7D007AE099071
:1006D200001374082EF0E0FE9000357464F0E4A379
:1006E200F0A3F0A3F0850D82850E83850FF0E5104F
:1006F200C007C006121066AA82AB83ACF0FD900060
:100702002C740AF0E4A3F0A3F0A3F08A828B838C0A
:10071200F0ED120E56AA82D006D00774302AFA9053
:10072200000AEEF090000BEAF08F82C007C00612BA
:1007320002C7D006D00790001374082EF0E0FE9096
:100742000035740AF0E4A3F0A3F0A3F0850D8285CE
:100752000E83850FF0E510C007C006121066AA824C
:10076200AB83ACF0FD90002C740AF0E4A3F0A3F08C
:10077200A3F08A828B838CF0ED120E56AA82D006E9
:10078200D00774302AFA90000AEEF090000BEAF0DB
:100792008F82C007C0061202C7D006D0079000138E
:1007A20074082EF0E0FE90000AF090000B742EF018
:1007B2008F82C007C0061202C7D006D0079000136E
:1007C20074082EF0E0FE90002C740AF0E4A3F0A36B
:1007D200F0A3F0850D82850E83850FF0E510C0072A
:1007E200C006120E56AA82D006D00774302AFA909A
:1007F200000AEEF090000BEAF08F82C007C00612EA
:1008020002C7D006D00790001374082EF0E09000C3
:100812000EF090000F74D9F07414A3F07480A3F05A
:100822008F820203B1E58290001AF0E0FFE0600AD5
:100832007B007CB47DC47E0480087BC07CC67D2D99
:100842007E0053B1FD43B202C2B153C9EF43CA1095
:10085200C2C490001BE4F0A3F090001BE0F9A3E0F7
:10086200FAC3E99430EA947550160090001BE0F93F
:10087200A3E0FA90001B740129F0E43AA3F080D9B6
:10088200758C00758A00C28DEF601043B10253B2BD
:10089200FD53C9EF43CA10D2C4800E43C91053CAD4
:1008A200EF53B1FD43B202D2B1D28C8B07780079FB
:1008B200007A007B00E5C820E517108D0280F674EF
:1008C200012AFAE43BFBC3EF98EC99ED9AEE9B50B8
:1008D200E4C28CAF8C7E00AC8A7D00EC4206ED4215
:1008E20007E4FDFCEE28F8EF39F9ED3AFAEC3BFBB0
:1008F200C2B1C2C4888289838AF0EB22900021E4CB
:10090200F0A3F0A3F0A3F0900025F0A3F0A3F0A3CE
:10091200F090002A04F090002BE4F043C92053CA5F
:10092200DF43B10153B2FE758E80759D00758E0056
:10093200438E805389F0C28CC28D1200CC1200E02B
:1009420090006412006212018712023B20B04990AB
:10095200003212006220B04020B00890000A12005B
:100962006280F590006412006290002BE0700E909D
:10097200002B7401F07582AE120166801B90002B71
:10098200E4F07582AF120166900021E4F0A3F0A3B7
:10099200F0A3F090002A04F090002BE0FFBF0108C2
:1009A20090006412006280A4758200120827AC8253
:1009B200AD83AEF0FFC374D89C74D69DE49EE49FD1
:1009C2004003020CF59000297401F07582011208AF
:1009D2002785821585831685F017F51890002AE081
:1009E2007038900025E0F511A3E0F512A3E0F513AD
:1009F200A3E0F514E4C0E0C0E0747AC0E07444C03F
:100A0200E08511828512838513F0E5141211D9ABAA
:100A120082E58124FCF581EB602B851582851683A6
:100A22008517F0E51812118DA882A983AAF0FB9010
:100A32000025E8F0E9A3F0EAA3F0EBA3F090002A86
:100A4200E4F0020ACC8515828516838517F0E51835
:100A520012118DA882A983AAF0FBC011C012C01383
:100A6200C014888289838AF0EB120E4BA882A98374
:100A7200AAF0FBE58124FCF581C000C001C002C0E0
:100A82000390000075F080743E120F95A882A9832E
:100A9200AAF0FBE58124FCF581C000C001C002C0C0
:100AA200038511828512838513F0E514121209A8B9
:100AB20082A983AAF0FBE58124FCF581900025E858
:100AC200F0E9A3F0EAA3F0EBA3F0900025E0F5151E
:100AD200A3E0F516A3E0F517A3E0F518E4C0E0746F
:100AE200B1C0E0741EC0E07449C0E085158285166D
:100AF200838517F0E5181211D9AB82E58124FCF544
:100B020081EB6042C015C016C017C01890F89D75E1
:100B1200F0C57436120F95A882A983AAF0FBE5816D
:100B220024FCF581888289838AF0EB1211A0A882C5
:100B3200A983AAF0FB90001DE8F0E9A3F0EAA3F074
:100B4200EBA3F0020C25E4C0E074B1C0E0741EC057
:100B5200E07449C0E08515828516838517F0E51893
:100B62001211D9E58124FCF581E58224FF9200402F
:100B720069E4C0E07424C0E074F4C0E07449C0E0E9
:100B82008515828516838517F0E5181211D9AB8277
:100B9200E58124FCF581EB6041C015C016C017C089
:100BA20018904BB875F0517439120F95A882A98329
:100BB200AAF0FBE58124FCF581888289838AF0EB27
:100BC2001211A0A882A983AAF0FB90001DE8F0E907
:100BD200A3F0EAA3F0EBA3F08049900025E0C0E087
:100BE200A3E0C0E0A3E0C0E0A3E0C0E090E8687545
:100BF200F09F7439120F95A882A983AAF0FBE581B0
:100C020024FCF581888289838AF0EB1211A0A882E4
:100C1200A983AAF0FB90001DE8F0E9A3F0EAA3F093
:100C2200EBA3F090001DE0F5F0A3E042F0A3E04258
:100C3200F0A3E045F0700D90001D7401F0E4A3F004
:100C4200A3F0A3F090001DE0F511A3E0F512A3E0DC
:100C5200F513A3E0F514900021E0F515A3E0F516D5
:100C6200A3E0F517A3E0F518C3E5159511E5169570
:100C720012E5179513E5189514503CE511C3951527
:100C8200F8E5129516F9E5139517FAE5149518FB90
:100C9200C3E89402E99400EA9400EB940040030252
:100CA2000DD290001DE515F0E516A3F0E517A3F0AF
:100CB200E518A3F0020DD2E515C39511F8E51695D6
:100CC20012F9E5179513FAE5189514FBC3E8940297
:100CD200E99400EA9400EB94004003020DD29000E4
:100CE2001DE515F0E516A3F0E517A3F0E518A3F04E
:100CF200020DD2900029E4F090002A04F08C828D3B
:100D0200838EF0EF12118DAC82AD83AEF0FFC00482
:100D1200C005C006C00790BF5D75F040743E120F5B
:100D220095AC82AD83AEF0FFE58124FCF5818C8227
:100D32008D838EF0EF1211A085821585831685F0C2
:100D420017F51890001DE515F0E516A3F0E517A3B9
:100D5200F0E518A3F0900021E0F8A3E0F9A3E0FA8F
:100D6200A3E0FBC3E89515E99516EA9517EB9518EC
:100D72005030E515C398FCE51699FDE5179AFEE596
:100D8200189BFFC3EC940CED9400EE9400EF9400DA
:100D9200503E90001DE8F0E9A3F0EAA3F0EBA3F0C7
:100DA200802EE8C39515FCE99516FDEA9517FEEB32
:100DB2009518FFC3EC940CED9400EE9400EF9400B0
:100DC200500E90001DE8F0E9A3F0EAA3F0EBA3F0C7
:100DD20090001DE0FCA3E0FDA3E0FEA3E0FF900075
:100DE20021E0F8A3E0F9A3E0FAA3E0FBECB5000EE2
:100DF200EDB5010AEEB50206EFB50302804290009E
:100E020029E0FB9000137410F0900014ECF0EDA3B5
:100E1200F0EEA3F0EFA3F0900018EBF0758203C0A0
:100E220007C006C005C004120406D004D005D006CF
:100E3200D007900021ECF0EDA3F0EEA3F0EFA3F0C9
:090E420090012C12006202094E1D
:101377003E5149453E00000000427F40000000000A
:1013870042615149460000002141454B31000000B0
:101397001814127F1000000027454545390000004A
:1013A7003C4A49493000000001710905030000006B
:1013B7003649494936000000064949291E00000000
:1013C70008080808080000000000000000000000EE
:1013D70000606000000000000036360000000000DA
:1013E7000609090600000000141414141400000074
:1013F7007E1111117E0000007F4949493600000027
:101407003E414141220000007F4141221C00000073
:101417007F494949410000007F0909010100000097
:101427003E4149497A0000007F0808087F00000014
:1014370000417F41000000002040413F01000000C3
:101447007F081422410000007F4040404000000018
:101457007F020C027F0000007F0408107F0000005D
:101467003E4141413E0000007F0909090600000096
:101477003E4151215E0000007F0919294600000006
:10148700464949493100000001017F010100000080
:101497003F4040403F0000001F2040201F00000049
:1014A7007F2018207F0000006314081463000000E9
:1014B7000708700807000000615149454300000014
:1014C70043583A20002020302E30204E4600204E30
:0614D7004600205546000E
:100E4B00A8811818C6B2E7C6021209AF82AE83ADED
:100E5B00F0FC900030EFF0EEA3F0EDA3F0ECA3F07C
:100E6B00900034E4F0900030E0FCA3E0FDA3E0FE42
:100E7B00A3E0FF7B0090002CE0F519A3E0F51AA38B
:100E8B00E0F51BA3E0F51C2354017074C003E519B6
:100E9B002519F8E51A33F9E51B33FAE51C33FB90FA
:100EAB00002CE8F0E9A3F0EAA3F0EBA3F090002C00
:100EBB00E0F519A3E0F51AA3E0F51BA3E0F51CC3BD
:100ECB00EC9519ED951AEE951BEF951CD003502759
:100EDB00E51CC313F51CE51B13F51BE51A13F51ADB
:100EEB00E51913F51990002CF0E51AA3F0E51BA3F7
:100EFB00F0E51CA3F080090B900034EBF0020E80A0
:100F0B00900034E0FF900030E0FBA3E0FCA3E0FD99
:100F1B00A3E0FE90002CE0F519A3E0F51AA3E0F591
:100F2B001BA3E0F51CC3EB9519EC951AED951BEE85
:100F3B00951C4017900030EBC39519F0EC951AA354
:100F4B00F0ED951BA3F0EE951CA3F090002CE0FBAD
:100F5B00A3E0FCA3E0FDA3E0C313FEED13FDEC1334
:100F6B00FCEB1390002CF0ECA3F0EDA3F0EEA3F050
:100F7B008F061FEE708F900030E0FCA3E0FDA3E026
:100F8B00FEA3E08C828D838EF022121038BC0003FE
:100F9B000212CCEF60FA30D502B2D1E583B4FF0375
:100FAB000212E2E582B4FF030212E225834007241A
:100FBB0082400B0212CC24831450030212E2F582FE
:100FCB00EA8DF0A4A8F0EA8EF0A428F8E435F0F945
:100FDB00EB8DF0A428E935F0F9E433CA8FF0A4299E
:100FEB00F9EA35F0FAEBF88EF0A429F9EA35F0FAC4
:100FFB00E433FBEC8DF0A429F9EA35F0FAE43BFB82
:10100B00E88FF0A42AFAEB35F0FBE433CCFD8EF03D
:10101B00A42AFAEB35F0FBE43CFCED8FF0A42BFBA0
:10102B00EC35F0FC20E70312115A0212ABAA82AB8B
:10103B0083A2F73392D1F5826002D2F7ACF0E5814F
:10104B0024F9F8E6FD08E6FE0886F008E6A2F73379
:10105B0092D5F5836002D2F7AFF022AF82AE83ADAB
:10106B00F0FC900039EFF0EEA3F0EDA3F0ECA3F061
:10107B0090003DE4F0A3F0A3F0A3F0900035E0FC6A
:10108B00A3E0FDA3E0FEA3E0FF7B20C003900039AB
:10109B00E0F8A3E0F9A3E0FAA3E0FB9000412354AE
:1010AB0001F0E828F8E933F9EA33FAEB33FB900067
:1010BB0039E8F0E9A3F0EAA3F0EBA3F090003DE0F0
:1010CB00F8A3E0F9A3E0FAA3E0FBE828F8E933F989
:1010DB00EA33FAEB33FB90003DE8F0E9A3F0EAA327
:1010EB00F0EBA3F0D003900041E0600890003DE0EE
:1010FB0043E001F090003DE0F519A3E0F51AA3E001
:10110B00F51BA3E0F51CC3E5199CE51A9DE51B9E99
:10111B00E51C9F401F90003DE519C39CF0E51A9D0F
:10112B00A3F0E51B9EA3F0E51C9FA3F0900039E014
:10113B0043E001F01BEB6003021096900039E0FCDA
:0F114B00A3E0FDA3E0FEA3E08C828D838EF02253
:06003500E478FFF6D8FD9F
:10115A007804EC7011E58224F8500AF582E4C9CAD1
:10116A00CBFCD8EF22EC7820058220E713D5820148
:10117A0022C3E933F9EA33FAEB33FBEC33FCD8EA5E
:03118A00158222A9
:100013007900E94400601B7A009014DD784275A0F2
:1000230000E493F2A308B8000205A0D9F4DAF2754C
:02003300A0FF2C
:10118D00FCABF0AA83A982749EC2D1F58212115ACA
:10119D000212AB7F9E1211C730D1030212CCC3EFE6
:1011AD009582500974FFF5F0F583F58222790012CE
:1011BD00133089828A838BF0EC22AA82AB83A2F74B
:1011CD003392D1F5826002D2F7ACF022FFA88118DC
:1011DD0018121280D2D133E6400730E70B7582002A
:1011ED002220E70675820122C2D1121262E9700334
:0C11FD00F5822220D101B3E433F58222F8
:10003B007800E84400600A790175A000E4F309D860
:10004B00FC7841E84400600C7901900001E4F0A3D6
:04005B00D8FCD9FAFA
:101209001210387900E583B58202800D500312125D
:10121900FAE583C39582121330E5D0C465D020E185
:1012290017EA2DFAEB3EFBEC3FFC5009740112134F
:1012390030EC4480FC0212ABC3EA9DFAEB9EFBEC56
:101249009FFC500FC3E499F9E49AFAE49BFBE49CF0
:10125900FCB2D112115A0212AB7901AA82E68F822D
:10126900B5821318E6B5F00E18E6B5830918E68AB3
:1012790082B58202790022B4800FE5F0700AE58315
:101289007006E58270027F00EFB6801518B600106F
:1012990018B6000B18B600060808087600220808D8
:1012A9000822B98003EA13B34010EA2401FAE43BA7
:1012B900FBE43CFC50047C800582BC000EBB000BA7
:1012C900BA0008E4F5F0F583F58222A2D1E582138C
:1012D9008CF092F78B838A8222E4F583F58275F08C
:1012E90080F4A2D11322E4F583F58275F0C0747FEE
:1012F90022E582C583F582A2D133A2D592D1139278
:0B130900D5ECCFFCEBCEFBEACDFA22C6
:0D000600758120121373E582600302000370
:1013140020F71430F6148883A88220F507E6A88302
:1013240075830022E280F7E49322E0226040F825EE
:1013340082500274FFF582E824F8501ECCCBCAF91F
:10134400E4CC24F85014CBCAF9E4CB24F8500BCAEB
:10135400F9E4CA24F8500379002224086010F8C381
:10136400EC13FCEB13FBEA13FAE913F9D8F1227539
:03137400820022D2
:00000001FF
